{
  "contractName": "Election",
  "abi": [
    {
      "constant": true,
      "inputs": [],
      "name": "blockHashNow",
      "outputs": [
        {
          "name": "",
          "type": "bytes32"
        }
      ],
      "payable": false,
      "stateMutability": "view",
      "type": "function",
      "signature": "0x149dfec2"
    },
    {
      "constant": true,
      "inputs": [
        {
          "name": "",
          "type": "address"
        },
        {
          "name": "",
          "type": "uint256"
        }
      ],
      "name": "acl_keeper",
      "outputs": [
        {
          "name": "",
          "type": "address"
        }
      ],
      "payable": false,
      "stateMutability": "view",
      "type": "function",
      "signature": "0x1c01bb3e"
    },
    {
      "constant": true,
      "inputs": [
        {
          "name": "",
          "type": "address"
        }
      ],
      "name": "acl_keeper_count",
      "outputs": [
        {
          "name": "",
          "type": "uint256"
        }
      ],
      "payable": false,
      "stateMutability": "view",
      "type": "function",
      "signature": "0x383f3a9d"
    },
    {
      "constant": true,
      "inputs": [
        {
          "name": "",
          "type": "bytes32"
        }
      ],
      "name": "tokenlist",
      "outputs": [
        {
          "name": "ownerID",
          "type": "address"
        },
        {
          "name": "tpID",
          "type": "address"
        },
        {
          "name": "permission",
          "type": "uint256"
        },
        {
          "name": "issued_at",
          "type": "uint256"
        },
        {
          "name": "expired_in",
          "type": "uint256"
        },
        {
          "name": "refresh_count",
          "type": "uint256"
        },
        {
          "name": "validity",
          "type": "bool"
        }
      ],
      "payable": false,
      "stateMutability": "view",
      "type": "function",
      "signature": "0x4f550db2"
    },
    {
      "constant": true,
      "inputs": [],
      "name": "blockNumber",
      "outputs": [
        {
          "name": "",
          "type": "uint256"
        }
      ],
      "payable": false,
      "stateMutability": "view",
      "type": "function",
      "signature": "0x57e871e7"
    },
    {
      "constant": true,
      "inputs": [
        {
          "name": "",
          "type": "address"
        }
      ],
      "name": "auth_ledger",
      "outputs": [
        {
          "name": "dataPointer",
          "type": "string"
        },
        {
          "name": "dataHash",
          "type": "string"
        },
        {
          "name": "flag",
          "type": "uint8"
        }
      ],
      "payable": false,
      "stateMutability": "view",
      "type": "function",
      "signature": "0x79082539"
    },
    {
      "constant": true,
      "inputs": [
        {
          "name": "",
          "type": "address"
        },
        {
          "name": "",
          "type": "address"
        }
      ],
      "name": "aclists",
      "outputs": [
        {
          "name": "permission",
          "type": "uint8"
        },
        {
          "name": "token",
          "type": "bytes32"
        }
      ],
      "payable": false,
      "stateMutability": "view",
      "type": "function",
      "signature": "0xf33b80e3"
    },
    {
      "inputs": [],
      "payable": false,
      "stateMutability": "nonpayable",
      "type": "constructor",
      "signature": "constructor"
    },
    {
      "anonymous": false,
      "inputs": [
        {
          "indexed": false,
          "name": "_address",
          "type": "address"
        },
        {
          "indexed": false,
          "name": "_dataPointer",
          "type": "string"
        },
        {
          "indexed": false,
          "name": "_dataHash",
          "type": "string"
        }
      ],
      "name": "uploadDataEvent",
      "type": "event",
      "signature": "0x088f6cc4ef58622e0f5d4c575cd49a2170356a58c3d2d648461f38f4b93fbb11"
    },
    {
      "anonymous": false,
      "inputs": [
        {
          "indexed": false,
          "name": "token",
          "type": "bytes32"
        }
      ],
      "name": "grantAccessEvent",
      "type": "event",
      "signature": "0x44e9542653dd814dc8c5b44e4c20d477e5468a5862011f00c02e8512496eccf4"
    },
    {
      "constant": false,
      "inputs": [
        {
          "name": "_owner",
          "type": "address"
        },
        {
          "name": "_dataPointer",
          "type": "string"
        },
        {
          "name": "_dataHash",
          "type": "string"
        }
      ],
      "name": "uploadData",
      "outputs": [],
      "payable": false,
      "stateMutability": "nonpayable",
      "type": "function",
      "signature": "0x27e72cfd"
    },
    {
      "constant": false,
      "inputs": [
        {
          "name": "_owner",
          "type": "address"
        },
        {
          "name": "_thirdparty",
          "type": "address"
        },
        {
          "name": "_permission",
          "type": "uint8"
        }
      ],
      "name": "grantAccess",
      "outputs": [],
      "payable": false,
      "stateMutability": "nonpayable",
      "type": "function",
      "signature": "0x4e635134"
    }
  ],
  "bytecode": "0x608060405234801561001057600080fd5b50611517806100206000396000f300608060405260043610610099576000357c0100000000000000000000000000000000000000000000000000000000900463ffffffff168063149dfec21461009e5780631c01bb3e146100d157806327e72cfd1461015e578063383f3a9d1461022d5780634e635134146102845780634f550db2146102f457806357e871e7146103bf57806379082539146103ea578063f33b80e31461051f575b600080fd5b3480156100aa57600080fd5b506100b36105ab565b60405180826000191660001916815260200191505060405180910390f35b3480156100dd57600080fd5b5061011c600480360381019080803573ffffffffffffffffffffffffffffffffffffffff169060200190929190803590602001909291905050506105b1565b604051808273ffffffffffffffffffffffffffffffffffffffff1673ffffffffffffffffffffffffffffffffffffffff16815260200191505060405180910390f35b34801561016a57600080fd5b5061022b600480360381019080803573ffffffffffffffffffffffffffffffffffffffff169060200190929190803590602001908201803590602001908080601f0160208091040260200160405190810160405280939291908181526020018383808284378201915050505050509192919290803590602001908201803590602001908080601f01602080910402602001604051908101604052809392919081815260200183838082843782019150505050505091929192905050506105fe565b005b34801561023957600080fd5b5061026e600480360381019080803573ffffffffffffffffffffffffffffffffffffffff169060200190929190505050610946565b6040518082815260200191505060405180910390f35b34801561029057600080fd5b506102f2600480360381019080803573ffffffffffffffffffffffffffffffffffffffff169060200190929190803573ffffffffffffffffffffffffffffffffffffffff169060200190929190803560ff16906020019092919050505061095e565b005b34801561030057600080fd5b50610323600480360381019080803560001916906020019092919050505061118c565b604051808873ffffffffffffffffffffffffffffffffffffffff1673ffffffffffffffffffffffffffffffffffffffff1681526020018773ffffffffffffffffffffffffffffffffffffffff1673ffffffffffffffffffffffffffffffffffffffff1681526020018681526020018581526020018481526020018381526020018215151515815260200197505050505050505060405180910390f35b3480156103cb57600080fd5b506103d461121b565b6040518082815260200191505060405180910390f35b3480156103f657600080fd5b5061042b600480360381019080803573ffffffffffffffffffffffffffffffffffffffff169060200190929190505050611221565b6040518080602001806020018460ff1660ff168152602001838103835286818151815260200191508051906020019080838360005b8381101561047b578082015181840152602081019050610460565b50505050905090810190601f1680156104a85780820380516001836020036101000a031916815260200191505b50838103825285818151815260200191508051906020019080838360005b838110156104e15780820151818401526020810190506104c6565b50505050905090810190601f16801561050e5780820380516001836020036101000a031916815260200191505b509550505050505060405180910390f35b34801561052b57600080fd5b50610580600480360381019080803573ffffffffffffffffffffffffffffffffffffffff169060200190929190803573ffffffffffffffffffffffffffffffffffffffff169060200190929190505050611388565b604051808360ff1660ff16815260200182600019166000191681526020019250505060405180910390f35b60065481565b6003602052816000526040600020818154811015156105cc57fe5b906000526020600020016000915091509054906101000a900473ffffffffffffffffffffffffffffffffffffffff1681565b8273ffffffffffffffffffffffffffffffffffffffff163373ffffffffffffffffffffffffffffffffffffffff1614151561063857600080fd5b6001600260008573ffffffffffffffffffffffffffffffffffffffff1673ffffffffffffffffffffffffffffffffffffffff16815260200190815260200160002060020160009054906101000a900460ff1660ff1614156107465781600260008573ffffffffffffffffffffffffffffffffffffffff1673ffffffffffffffffffffffffffffffffffffffff16815260200190815260200160002060000190805190602001906106e99291906113c6565b5080600260008573ffffffffffffffffffffffffffffffffffffffff1673ffffffffffffffffffffffffffffffffffffffff16815260200190815260200160002060010190805190602001906107409291906113c6565b50610804565b606060405190810160405280838152602001828152602001600160ff16815250600260008573ffffffffffffffffffffffffffffffffffffffff1673ffffffffffffffffffffffffffffffffffffffff16815260200190815260200160002060008201518160000190805190602001906107c1929190611446565b5060208201518160010190805190602001906107de929190611446565b5060408201518160020160006101000a81548160ff021916908360ff1602179055509050505b7f088f6cc4ef58622e0f5d4c575cd49a2170356a58c3d2d648461f38f4b93fbb11838383604051808473ffffffffffffffffffffffffffffffffffffffff1673ffffffffffffffffffffffffffffffffffffffff1681526020018060200180602001838103835285818151815260200191508051906020019080838360005b8381101561089e578082015181840152602081019050610883565b50505050905090810190601f1680156108cb5780820380516001836020036101000a031916815260200191505b50838103825284818151815260200191508051906020019080838360005b838110156109045780820151818401526020810190506108e9565b50505050905090810190601f1680156109315780820380516001836020036101000a031916815260200191505b509550505050505060405180910390a1505050565b60046020528060005260406000206000915090505481565b60008373ffffffffffffffffffffffffffffffffffffffff163373ffffffffffffffffffffffffffffffffffffffff1614151561099a57600080fd5b6001600260008673ffffffffffffffffffffffffffffffffffffffff1673ffffffffffffffffffffffffffffffffffffffff16815260200190815260200160002060020160009054906101000a900460ff1660ff161415156109fb57600080fd5b60008060008673ffffffffffffffffffffffffffffffffffffffff1673ffffffffffffffffffffffffffffffffffffffff16815260200190815260200160002060008573ffffffffffffffffffffffffffffffffffffffff1673ffffffffffffffffffffffffffffffffffffffff16815260200190815260200160002060000160009054906101000a900460ff1660ff161115610c70576000808573ffffffffffffffffffffffffffffffffffffffff1673ffffffffffffffffffffffffffffffffffffffff16815260200190815260200160002060008473ffffffffffffffffffffffffffffffffffffffff1673ffffffffffffffffffffffffffffffffffffffff1681526020019081526020016000206001015490508160ff166000808673ffffffffffffffffffffffffffffffffffffffff1673ffffffffffffffffffffffffffffffffffffffff16815260200190815260200160002060008573ffffffffffffffffffffffffffffffffffffffff1673ffffffffffffffffffffffffffffffffffffffff16815260200190815260200160002060000160009054906101000a900460ff1660ff16141515610c6b57816000808673ffffffffffffffffffffffffffffffffffffffff1673ffffffffffffffffffffffffffffffffffffffff16815260200190815260200160002060008573ffffffffffffffffffffffffffffffffffffffff1673ffffffffffffffffffffffffffffffffffffffff16815260200190815260200160002060000160006101000a81548160ff021916908360ff1602179055508160ff16600160008360001916600019168152602001908152602001600020600201819055505b611147565b600360008573ffffffffffffffffffffffffffffffffffffffff1673ffffffffffffffffffffffffffffffffffffffff1681526020019081526020016000208390806001815401808255809150509060018203906000526020600020016000909192909190916101000a81548173ffffffffffffffffffffffffffffffffffffffff021916908373ffffffffffffffffffffffffffffffffffffffff160217905550506000600460008673ffffffffffffffffffffffffffffffffffffffff1673ffffffffffffffffffffffffffffffffffffffff168152602001908152602001600020541115610daf57600460008573ffffffffffffffffffffffffffffffffffffffff1673ffffffffffffffffffffffffffffffffffffffff16815260200190815260200160002060008154809291906001019190505550610df5565b6001600460008673ffffffffffffffffffffffffffffffffffffffff1673ffffffffffffffffffffffffffffffffffffffff168152602001908152602001600020819055505b4360058190555060055440600681600019169055508383600654604051602001808473ffffffffffffffffffffffffffffffffffffffff1673ffffffffffffffffffffffffffffffffffffffff166c010000000000000000000000000281526014018373ffffffffffffffffffffffffffffffffffffffff1673ffffffffffffffffffffffffffffffffffffffff166c01000000000000000000000000028152601401826000191660001916815260200193505050506040516020818303038152906040526040518082805190602001908083835b602083101515610eef5780518252602082019150602081019050602083039250610eca565b6001836020036101000a0380198251168184511680821785525050505050509050019150506040518091039020905060e0604051908101604052808573ffffffffffffffffffffffffffffffffffffffff1681526020018473ffffffffffffffffffffffffffffffffffffffff1681526020018360ff168152602001428152602001610bb88152602001600181526020016001151581525060016000836000191660001916815260200190815260200160002060008201518160000160006101000a81548173ffffffffffffffffffffffffffffffffffffffff021916908373ffffffffffffffffffffffffffffffffffffffff16021790555060208201518160010160006101000a81548173ffffffffffffffffffffffffffffffffffffffff021916908373ffffffffffffffffffffffffffffffffffffffff16021790555060408201518160020155606082015181600301556080820151816004015560a0820151816005015560c08201518160060160006101000a81548160ff02191690831515021790555090505060408051908101604052808360ff16815260200182600019168152506000808673ffffffffffffffffffffffffffffffffffffffff1673ffffffffffffffffffffffffffffffffffffffff16815260200190815260200160002060008573ffffffffffffffffffffffffffffffffffffffff1673ffffffffffffffffffffffffffffffffffffffff16815260200190815260200160002060008201518160000160006101000a81548160ff021916908360ff160217905550602082015181600101906000191690559050505b7f44e9542653dd814dc8c5b44e4c20d477e5468a5862011f00c02e8512496eccf48160405180826000191660001916815260200191505060405180910390a150505050565b60016020528060005260406000206000915090508060000160009054906101000a900473ffffffffffffffffffffffffffffffffffffffff16908060010160009054906101000a900473ffffffffffffffffffffffffffffffffffffffff16908060020154908060030154908060040154908060050154908060060160009054906101000a900460ff16905087565b60055481565b6002602052806000526040600020600091509050806000018054600181600116156101000203166002900480601f0160208091040260200160405190810160405280929190818152602001828054600181600116156101000203166002900480156112cd5780601f106112a2576101008083540402835291602001916112cd565b820191906000526020600020905b8154815290600101906020018083116112b057829003601f168201915b505050505090806001018054600181600116156101000203166002900480601f01602080910402602001604051908101604052809291908181526020018280546001816001161561010002031660029004801561136b5780601f106113405761010080835404028352916020019161136b565b820191906000526020600020905b81548152906001019060200180831161134e57829003601f168201915b5050505050908060020160009054906101000a900460ff16905083565b6000602052816000526040600020602052806000526040600020600091509150508060000160009054906101000a900460ff16908060010154905082565b828054600181600116156101000203166002900490600052602060002090601f016020900481019282601f1061140757805160ff1916838001178555611435565b82800160010185558215611435579182015b82811115611434578251825591602001919060010190611419565b5b50905061144291906114c6565b5090565b828054600181600116156101000203166002900490600052602060002090601f016020900481019282601f1061148757805160ff19168380011785556114b5565b828001600101855582156114b5579182015b828111156114b4578251825591602001919060010190611499565b5b5090506114c291906114c6565b5090565b6114e891905b808211156114e45760008160009055506001016114cc565b5090565b905600a165627a7a723058205efe28fa9ec75672e87dfe589f7be46f920ff87ce44fced6f726a3f31dd567f60029",
  "source": "pragma solidity 0.4.25;\n\ncontract Election {\n    \n  struct AuthLedger {\n\t\tstring dataPointer;\n\t\tstring dataHash;\n\t\tuint8 flag;\n  }\n\n\tstruct Dataset {\n\t\tuint datasetId;\n\t\taddress owner;\n\t\taddress sp;\n\t\tstring dataPointer;\n  }\n\n\tstruct Acl {\n\t\tuint8 permission;\n\t\tbytes32 token;\n\t}\n\n\tstruct AccessToken {\n\t\t//There is no need to consider SP's ID here as we use only one SP in the demonstration\n\t\taddress ownerID;\n\t\taddress tpID; //thirdparty ID who requests to access data\n\t\t//string dataHash\n\t\tuint permission; //1-create;2-read;4-update;8-delete and sum of the operations\n\t\tuint256 issued_at; //Unix timestamp\n\t\tuint expired_in;\n\t\tuint refresh_count;\n\t\tbool validity;\n  }\n\n  /* We consider only one Service provider, thus there is no need to add SP's Id */\n\n    //mapping access control list for data owners\n    mapping(address => mapping(address => Acl)) public aclists;\n\t\t\n\t\t//mapping AccessToken for data owners\n\t\tmapping(bytes32 => AccessToken) public tokenlist;\n\n    // Auth_ledger\n    mapping(address => AuthLedger) public auth_ledger;\n\n\t\t// Access Control List Keeper for keep track of granted third-parties\n\t\t//mapping(address => AclKeeper) public acl_keeper;\n\t\tmapping(address => address[]) public acl_keeper;\n\t\tmapping(address => uint) public acl_keeper_count;\n\n    // Token_ledger\n    // mapping(string => AccessToken) public token_ledger;\n\n\t\tuint public blockNumber;\n\t\tbytes32 public blockHashNow;\n\n    // Upload Data event\n    event uploadDataEvent (\n\t\t\taddress _address,\n\t\t\tstring _dataPointer,\n\t\t\tstring _dataHash\n    );\n\n\t\tevent grantAccessEvent(\n\t\t\tbytes32 token\n\t\t);\n\n    constructor () public {\n    }\n\n  function uploadData (address _owner, string _dataPointer, string _dataHash) public {\n\t\trequire(msg.sender == _owner);\n\n\t\tif(auth_ledger[_owner].flag == 1) { //owner has previously uploaded data\n\t    //update the ledger\n\t    auth_ledger[_owner].dataPointer = _dataPointer;\n\t    auth_ledger[_owner].dataHash = _dataHash;\n\t\t} else {\n\t\t\t//initiate the Access Control List\n\t    //aclists[msg.sender][msg.sender] = Acl(16, ); //provide all permissions to the data owner\n\t\t\t//token = keccak256(abi.encodePacked(_owner, _thirdparty, blockHashNow));\n\n\t    auth_ledger[_owner] = AuthLedger(_dataPointer, _dataHash, 1);\n\t\t}\n\t\t//trigger uploadData event\n\t\temit uploadDataEvent(_owner, _dataPointer, _dataHash);\n  }\n\n\tfunction grantAccess (address _owner, address _thirdparty, uint8 _permission) public {\n\t\trequire(msg.sender == _owner);\n\t\trequire(auth_ledger[_owner].flag == 1); //owner have already uploaded data\n\n\t\tbytes32 token;\n\n\t\t// update the acl_keeper\t\t\n\t\tif (aclists[_owner][_thirdparty].permission > 0) { //thirdparty has already granted a permission -> update new permission\n\t\t\t// no need to update the acl_keeper\n\t\t\t// retrieve the Access Token\n\t\t\ttoken = aclists[_owner][_thirdparty].token;\n\t\t\tif (aclists[_owner][_thirdparty].permission != _permission){\n\t\t\t\t//update new permission\n\t\t\t\taclists[_owner][_thirdparty].permission = _permission;\n\t\t\t\ttokenlist[token].permission = _permission;\n\t\t\t}\n\n\t\t} else {\n\t\t\t// update the acl_keeper to add the thirdparty to the list of granted account\n\t\t\t//update acl_keeper ledger\n\t\t\tacl_keeper[_owner].push(_thirdparty);\n\t\t\t\n\t\t\tif (acl_keeper_count[_owner] > 0) {\n\t\t\t\tacl_keeper_count[_owner] ++;\n\t\t\t} else {\n\t\t\t\tacl_keeper_count[_owner] = 1;\n\t\t\t}\n\t\t\t\n\t\t\t//create token\n\t\t\tblockNumber = block.number;\n\t\t\tblockHashNow = blockhash(blockNumber);\n\t\t\ttoken = keccak256(abi.encodePacked(_owner, _thirdparty, blockHashNow));\n\t\t\t//create a pseudo-random access token with associated information\n\t\t\ttokenlist[token] = AccessToken(_owner, _thirdparty, _permission, block.timestamp, 3000, 1, true);\n\t\t\t\n\t\t\t//create aclists record\n\t\t\taclists[_owner][_thirdparty] = Acl(_permission, token);\n\t\t}\n\n\t\t//create or update permission\n\t\t//aclists[_owner][_thirdparty] = _permission;\n\t\temit grantAccessEvent(token);\n\t}\n}\n",
  "sourcePath": "/home/nguyentb/workspace/election-2019_update/contracts/Election.sol",
  "compiler": {
    "name": "solc",
    "version": "0.4.25+commit.59dbf8f1.Emscripten.clang"
  },
  "schemaVersion": "3.0.8",
  "updatedAt": "2019-05-29T11:39:44.640Z",
  "devdoc": {
    "methods": {}
  },
  "userdoc": {
    "methods": {}
  }
}